:400000000010002011000000111100001111000008B501F079FB01F083F8C04638B5104D12232B60182001F0E7FA00240D4B1C608023DB050C4A1A60C021C9000B4A1160D8
:400040000B4A1A6004220B4B1A603D320A4B1A600A4B1C60002001F05FFB2C6038BDC046300010400003004040FF00800403004041FF008028000340000100400C02064031
:4000800008B572B6EE230A4A13600A4A13600022094B1A603632094B1A60333A084B1A602132084B1A60FFF7B9FF01F081F808BD000002400003024004013F400800044008
:4000C000000304400803044000000000000000000000000000000000000000000000000000000000000000000000000000000000000000000000000000000000000000006A
:4001000010B5064C2378002B07D1054B002B02D0044800E000BF0123237010BD3005002000000000F01B000008B5084B002B03D00748084900E000BF07480368002B00D1EB
:4001400008BD064B002BFBD09847F9E700000000F01B000034050020B000002000000000F0B557464E464546E0B486B001F042F862B63C2000F0C0FC00F036FC00F062FC9A
:4001800028202821012200F015FD00F05BFCFA20800001F0B3F900F027FC00F053FC00240EE000F0C7FC22B2431E1BB2012100910020002100F02CFD00F044FC0434A4B227
:4001C00000F0B2FC23B29842EBDC00240EE000F0ABFC421E12B223B2012100910020002100F016FD00F02EFC0434A4B200F0A2FC23B29842EBDCE24801F080F900F0F4FB33
:4002000000F020FC012000F0A1FC012000F0A6FC0020002100F094FC002407E023B20A2B02D0E0B200F01EFF0134A4B223B2A72BF4DD00F007FCD24C201C01F05FF900F081
:40024000D3FB00F0FFFB0020002100F079FC022000F07CFC382000F005FF032000F076FC382000F0FFFE042000F070FC382000F0F9FE00F0E7FB201C01F040F900F0B4FBEA
:4002800000F0E0FB012000F061FC012000F066FC0020002100F054FCBA4800F031FFBA4800F02EFF00F0CEFB201C01F027F900F09BFB00F0C7FB012000F048FC012000F02C
:4002C0004DFC0020002100F03BFC012404E0AF4800F016FF0134A4B223B20F2BF7DD00F0B1FB002007212622072300F0CFFBFA24E400201C01F002F900F0BCFB02200421B2
:400300002A22062300F0C2FB201C01F0F7F800F0B1FB9B4801F0F2F800F066FB00F092FB002417E000F000FC061CA5B2EA03521B53009FB200F0FEFB21B2BA1912B23B1833
:400340001BB201200090081C00F0D6FC00F07AFB0235ACB200F0EEFBC30F1818401000B223B29842DEDC864801F0C8F800F03CFB00F068FB012600241BE000F0D5FB804614
:40038000A5B2EA03521B53009FB200F0D3FB21B24346FA1812B23B181BB2012030400090081C00F0D5FC00F04DFB0136F6B20335ACB200F0BFFBC30F1818401000B223B2A2
:4003C0009842DADC6E4801F099F800F00DFB00F039FB002515E000F0A7FB041C00F0AAFB031CE00F0019441020B2D90FC9184B1019B22AB2012300F0E3FC00F023FB023568
:40040000ADB200F097FB2BB29842E4DC5C4801F075F800F0E9FA00F015FB00243BE000F083FB071C00F086FB8146A4B200F07CFB804600F07FFB061C00F076FB051C00F006
:4004400079FBFB0FDF197F103FB24B46D90F49444910091B09B24346DA0F42445210121B12B2F30F9B195B10E3181BB2EE0F76197610A61936B20096C50F2D186D106519B1
:400480002DB2019501200290381C00F041FD00F0D9FA0534A4B225B200F046FB061C00F049FB864205DA00F03FFBC30F1818401004E000F03FFBC30F181840108542AEDB0F
:4004C0002F4801F01BF800F08FFA00F0BBFA0023984668E043466A46D375D07D00F044FB00243FE000F020FB824600F023FB071CA4B200F019FB061C00F01CFB051C00F042
:4005000013FB814600F016FB5346DB0F53445B101BB29A46F90FC9194910091B09B2F20F92195210121B12B2EB0F5B195B10E3181BB24D46ED0F4D446D1065192DB2009562
:40054000C50F2D186D1065192DB2019501200290504600F0DDFC00F075FAC82000F0CEFF0534A4B225B200F0DFFA061C00F0E2FA86420DDA00F0D8FAC30F181840100CE010
:40058000B80B0000F41B0000041C0000141C000000F0D0FAC30F181840108542A2DB434601339BB2984643461BB2032B92DD184800F0A4FF012000F033FAFA20800000F033
:4005C0009DFF8024640007E0E0B200F01BFA0A2000F094FF013CA4B223B2002BF4DA002000F01EFAFA20800000F088FF002407E0E0B200F007FA0A2000F080FF0134A4B2E0
:4006000023B2FF2BF4DD024800F078FFB4E5C046B80B000083B27F2B3FD800293DDB3F293BDC012A04D0002A14D0022A24D034E0CB175B0F5B18DB10DB011B181748013097
:40064000C01807231940063B8B40191C03781943017022E0CB175B0F5B18DB10DB011B180E480130C01807231940063B8B40191C03788B43037010E0CB175B0F5B18DB1062
:40068000DB011B1805480130C01807231940063B8B40191C0378594001707047B4000020F0B5474680B406AC258890426AD1CC17640F6418E410E4012018474F013738182E
:4006C000DC17640FE418E410E401A218BA18041C55E084421BD1414E0E4004D5013E08277F423E430136F6B2B046F7187F1AFFB2062F00D907274646BF1B01370126BE4099
:40070000371C013F3E1C4746BE40F6B20FE094420DD1324E1E4004D5013E08277F423E43013636B20127B7403E1C013EF6B2844201D0944212D1012D04D0002D06D0022D8C
:4007400008D01BE027783743277017E02778B743277013E02778774027700FE0012D04D0002D05D0022D06D008E0FF27277005E00027277002E02778FF43277080349442CB
:40078000A7D926E0CB175B0F5B18DB10DB011C18114B01331B19121A9A180720014006388840011CC4B212E0012D04D0002D06D0022D08D00AE018782043187006E018787D
:4007C0008843187002E018786040187001339342EAD904BC9046F0BDB40000200700008010B50A88124B1B78022B0BD0032B16D0012B1BD103880B800E4B1B889A1A013A26
:40080000028013E002880B4B1B889B1A013B03800A88094B1B889B1A013B0B8006E00488054B1B881B1B013B0B80028010BDC04666050020640500206805002070B584B096
:4008400008AC25880E246C44208003AC21800A2169440A8002A90B8083B291B2824208D0221C0020105E02AA0024125F904200D08FE0494A1278012A01D0032A25D11AB273
:40088000002A00DA85E0454A12881BB210B2834200DB7EE00BB2002B00DA7AE0834200DB77E003AB1B881AB2002A72DB3C4A12881BB211B28B426CDA02AB1B8819B200296B
:4008C00067DB12B28A4221DC63E003AA128810B200285EDB3148008812B204B2A24258DA02AA128814B2002C53DB00B2A04250DD1AB2002A4DDB2A4A12881BB210B2834244
:4009000047DA0BB2002B44DB834242DA0E266E44301C03A9FFF764FF0A246C44201C02A9FFF75EFF3388228818B211B2884207D102A90020085E03A90024095F88420BDBB2
:4009400003A90020085E02A90024095F88420FD119B210B281420BDD0E2169440A800A226A44138003AA118802AB1888108019800E236B440020185E03AB0021595E0A2374
:400980006B4400229A5E02AB00241B5F0095FFF787FE04B070BDC04666050020680500206405002010B5031C0C1C0E4A1078191C221C002300F0CAFC00F090FC8307FBD57D
:4009C00000F08CFC830505D400F082FC844203D0FF2402E0FF2400E0002400F097FC201C10BDC0464C05002010B5054C601C00218022D20001F0EDF84023237010BDC04622
:400A0000B400002000B583B001AB00221A7081325A709870181C0321FFF7C4FF03B000BD00B583B0002201AB1A70002801D0A72300E0A62301A843700221FFF7B3FF03B016
:400A400000BDC04600B583B068460749072201F0B7F868460721FFF7A5FF04480449FFF7A1FF03B000BDC0461C1C0000B40000200104000000B583B001A8002303702E3356
:400A800043700221FFF78EFF03B000BD30B585B001AC002525706270A570E07023716171A571FF23E371D03B2372201C0921FFF779FF05B030BDC0460A4B18800A4B1980CC
:400AC0000A4B58809980002209490A70DA801A8101329A72012149429981D981054B1A707047C04664050020680500204C050020660500206A05002000B589B0084B18706C
:400B000080204021FFF7D8FF01A8064908311A2201F056F801A81A21FFF744FF09B000BD4C0500201C1C0000014B0220185E70474C050020014B0420185E70474C050020E5
:400B4000014BD880198170474C050020002800D10130014B987270474C050020014B9881D88170474C050020032318400D4B187001280ED0002804D0022802D003280FD119
:400B800007E0094B094A12885A80094A12889A8006E0054B064A12885A80044A12889A807047C046660500204C050020640500206805002070B582B0141C6B46D88001AB25
:400BC000198083B200281EDB1BB2104A0221525E934218DA01AB1B881AB2002A13DB131C0A4A0421525E93420DDA6B469E1D01AD301C291CFFF7F4FD0023F05E0023E95E91
:400C0000221CFFF707FD02B070BDC0464C050020F0B55F4656464D464446F0B485B0041C0E1C171C0EAA12880392B84201D0994207D1039A0092201C311C3A1CFFF7FEFD69
:400C400051E0581AC21780185040391BCA17891851400122884200DC0022D2B292B29046002A05D03A1C1F1C131C221C341C161CBC4205DD321C1E1C131C221C3C1C171C01
:400C80003A1B92B292469A1BD11752184A409146524612B2D50FAA18521095B29E4202DA01239B461DE0134B9B461AE04346002B05D0301C211C039AFFF77CFF04E0201C79
:400CC000311C039AFFF776FF4B46ED1AABB29DB22AB2002A03DA5E4436B253449DB2013424B2BC42E2DD05B03CBC90469946A246AB46F0BDFFFF0000F0B585B0071C1C1C25
:400D00000AAB1E888518013D2DB200960B1C2A1C0393FFF77DFF039B9C466444013C24B20096381C211C2A1C231CFFF771FF0096381C03993A1C231CFFF76AFF0096281CF2
:400D400003992A1C231CFFF763FF05B0F0BDC046F0B54F464646C0B483B0051C0E1C171C98460AAB1B88994690450FDC0C1C1EE04346F318013B1BB24A460092201C311C64
:400D8000221CFFF745FF013424B200E0041CEB199C42EDDB0FE0EA19013A12B24B460093281C211C231CFFF733FF013424B24346F3189C42EFDB03B00CBC90469946F0BDE5
:400DC000F0B55F4656464D464446F0B487B0051C0C1C02921F1C019396B201239B1B9BB29B46F3039B1B5A0093B205938BB29A46F11809B23A1CFFF7DDFE5346991B09B226
:400E0000281C3A1CFFF7D6FEABB29946F01800B2211C3A1CFFF7CEFE4B46981B00B2211C3A1CFFF7C7FE002303930133984662E05B461BB2002B0BDB029B013B1BB20293F8
:400E4000059B02339BB29AB205925B449BB29B46039C0134A4B2A3B20393434602339BB29AB290465B449BB29B464B461F196B461D8953465E193FB236B2381C311C019A4C
:400E8000FFF798FE4B461B1B1BB20493181C311C019AFFF78FFE5246561B36B2381C311C019F3A1CFFF786FE0498311C01973A1CFFF780FE4B465E1953461F1936B23FB2DD
:400EC000301C391C019AFFF775FE4B465D1B2DB2281C391C019F3A1CFFF76CFE53461C1B24B2301C211C3A1CFFF764FE281C211C3A1CFFF75FFE6B460C229B5E029A934226
:400F000096DB07B03CBC90469946A246AB46F0BDF0B587B0171C03930CAB00229D5E0DAB00229C5E0EAB1E880096049005913A1C039BFFF76DFE0096381C03992A1C231C8A
:400F4000FFF766FE0096281C211C049A059BFFF75FFE07B0F0BDC046F0B55F4656464D464446F0B485B00EAC2488A3460FAC27783A4C0225645FA04268DA384C0425645F7C
:400F8000A14263DA7C00E41964000419012C5DD4FC000C19012C59D4984603928A468146002650E0052E08D0039A93009A1873B2D3182B4A2432D55C00E0002500243DE09F
:400FC000EB071BD5012F09D170B2484400B261B2514409B24246FFF7EDFD2CE0BBB270B25843484400B261B25943514409B21BB2424600921A1CFFF7ABFE1CE0C3451AD0BD
:40100000012F09D170B2484400B261B2514409B25A46FFF7CFFD0EE0BBB270B25843484400B261B25943514409B21BB25A4600921A1CFFF78DFE6D080134E4B263B2072BEF
:40104000BEDD0136F6B273B2052BABDD05B03CBC90469946A246AB46F0BDC0464C0500201C1C000030B583B00A2808D11B4B9A7AD200198952181A810022DA802CE00D28AF
:401080002AD0021C154C0623E05E0823E15EE389A5890095A57A0195FFF75EFFA27A90B2410041184D00E388EB189BB2E3800C490978002910D01BB29100521A5200074901
:4010C0000224095F8A18934206DD044BC0001A89801818810022DA8003B030BD4C0500206A05002070B5061C00F07BFD051C002403E0305DFFF7B6FF0134AC42F9D370BDDE
:4011000008B5FFF7EFFF0A20FFF7ACFF08BDC04608B500F029FD03680C2B00D1FEE7FEE770B50F4E0F4D13E029686B68AC68002202E001C901C30432A242FAD1E868002236
:4011400002E0002102C304328242FAD11035013E002EE9D100F00EFDFFF702F8FEE7C046010000007C21000008B500230AE0032B03D89A000949505800E009489900094A7E
:4011800088500133282BF2D9FEF77AFF0022064B1A6080229205054B1A6008BD000000001111000000000020A800002008ED00E00322034B1A600022024B1A607047C04670
:4011C00008013F40000E3F4008B5082000F048F908BDC04608B500F01DF808BD08B5044A1368802109060B431360FFF7EDFF08BD0000074008B5064B1B78002B04D1FFF7F6
:40120000E9FF0122024B1A70FFF7E8FF08BDC0465C05002010B50024194B1C60194A1A4B1A601A4B1A4A13601A4A14601A4A14601A4A13601A4B1C60082000F01BF90820A0
:40124000032100F035F90820164900F01FF9164B1C60164B1C60164B1C601422FF32154B1A60154B1C60154B1C60043AFF3A144B1A70144B1C80144B1C60144B1C6010BD2F
:40128000000007408808008060000740070100800003074004030740100307400002074004020740A1170000C80E0740880E0740480F0740080F0740C80F0740880F074076
:4012C0006B0500206C0500207405002078050020014B18687047C0467805002010B5082000F0C8F8074B1B889BB21C1C064A1278920601D504241C43082000F0B1F8201C8E
:4013000010BDC0466C0500206B05002010B5082000F0B0F8044B1C88A4B200221A80082000F09EF8201C10BD6C050020054B1B682022134000D0082301221343024A13604C
:401340007047C0466400074068000740F0B583B001900C1C171C1D1C002919D0284B1B78102B0AD1082000F085F8264B1B68DB0701D508260FE000260DE0214B1B78602B30
:4013800008D1214A138808218B431380002602E0042600E00426002E2BD12822184B1A7000231A4A13601A4A13601A4B1F601A4B1C60EAB2194B1A70019B5C00FF231C4091
:4013C000114A138802218B431380154A154B1A604023154A1360154A1360EB0704D5FFF7A5FF134B1C6004E0114B1C600222114B1A60082000F034F8301C03B0F0BDC04648
:401400006B050020640007406C050020700500207805002080050020840500206E05002017030000000F0740800F0740880F07404002074068000740024A1168024B0B4014
:401440001360704700000640FFFFFFBF034B18688023DB05184000D001207047000006401F2318401E3B8340181C014B1860704700E100E01F2318401E3B8340181C014B4D
:401480001860704780E100E001BE704738B5041C0D1C182802D90020FFF7F6FFA400034B9C4664442068256038BDC0464000002070B5041C0E1E032E02D90020FFF7E4FF90
:4014C000182C02D90020FFF7DFFF03252540ED00063500F05EF9A408A400074B9C46644423680322AA409343AE40351C1D43256000F053F970BDC04600E400E010B5041C05
:4015000006E0084B586800F03BF9074B9C46644480231B029C42F4D8024B9868604300F02FF910BDB80400200080FFFF30B583B000F0E0F8002848D000F02BF9041C244B56
:401540001B6807221A409200131C1833214A12681207920FD3401A1C1F4B19681F4B19401F4B53438020C00184466344DB0B013B5B055B0D0B43A02149031943192A02D833
:40158000184A13430BE0184BD31818781A3A174B9B5CC318FF2B00D9FF239B050B430E4A1360134D2B680193302000F0B3FA114A13688021C9050B4313601420FFF79EFF03
:4015C000019B2B60201C00F0E8F803B030BDC046080F0340280003400800064000F800C040420F000000D43FCDF1FF0F3C2100003000104000000640F0B583B0041E182C76
:401600000BD01C2809D0202807D0242805D0282803D02C2801D0302849D100F0BAF80190FFF714FF002803D0FFF706FF012600E00026214A136807218B4313601F4BE318A5
:401640001B78DBB21E4A13601E4A13688B4313601D4803687F229343191C1C4BE3181B7813400B430360322000F08AF8182C16D9114F3B680725AB431A1C231C1C3B9B0853
:401680002B4013433B60322000F07AF83A68AA43231C183B9B082C1C1C4014433C60012E01D1FFF743FF019800F077F802E00020FFF7EAFE03B0F0BD080F0340CDF1FF0F28
:4016C0000C0F0340100F0340180F0340B4F1FF0F08B5034B1B7B584300F052F808BDC046B8040020024B1868800F80077047C0460C020640034B1B68002B01DA012000E024
:401700000020704700000640014A024B1A6070476588EDAC3800034010B5041CFFF7E2FFA0421AD0144A136803218B431360134B1B689B0F01D17C2001E086204000FFF746
:40174000C7FF00F026F80D4A13689B009B08A40FA4071C43146000F020F8074B1B6803229343064A1268920F01D1023200E001221343014A136010BD140206400C02064077
:401780000230800803D001300238FCD1C046C0467047EFF3108072B6704780F31088704710B5B94B1B68002B00D09847B74B1B68DB0702D50022B64B1A60B64B1B789B0658
:4017C00028D5B54B1B68DB0507D5B44A1188C0239B000B431380012300E00023AE4A1268D20706D5AD4A118890239B000B4313800123002B0FD0A74A1278D20701D5012230
:4018000000E00222A549088802430A800021A14A117000E000239F4A1278920600D417E19D4A1268D20611D510229D4B1A60994B1B78DB0701D5012300E00223974A11886B
:401840000B4313801022934B1A701BE1914A1278120720D5904A126892070AD50222904B1A608E4A118888239B000B431380012311E0884A1278D20703D52521854A1170E9
:4018800009E02421834A1170864A1268002A02D01439854A11607F4A1278520700D4AEE07C4A1278D20749D5804A1268120727D57F4A12687F4909681F240C407E490968E8
:4018C0006418141B082C09D8002C16D17B4A11687B4B0B401360012308340EE008240CE0754A116877480068411877480068C0B20870116801311160013C002CF0D119E0E5
:401900006A4A1268520715D56B4A11686D48006841186D480068C0B208701168013111601168634A1268914203D20421674A116000E001236649674A116060E0564A1268B1
:40194000920726D50222564B1A60634A13681F211940136880221202134000D00123CB185E4A1168CB1A136012685D4B1A604B4A118884239B000B4313805A4B1A6880214A
:4019800049020A431A601968574A0A401A60012335E0564A1268D2061ED427E04F4A1168404A126891421DD23E4A1268013A4B4909688A4204D140224D490A603A490A6001
:4019C000464A11684B48006841180978C9B24A4801601168013111603F4A12681F210A40082ADBD11021424A116008E03F4A1268520604D5394B1A68394B1A600123002B77
:401A000040D02E4A11682E4B0B40136000233B4A1360254A13603A4B1B789B070ED51D4B1B78DB0701D5092300E00A231B4A11880B4313806022174B1A7023E0314B1B6899
:401A40009B0601D5182200E01022204B1A6019E0104B1B78DB0615D42B4A13685B005B08136010210B4B1970144B18682749014019601868264901401960136880210906FF
:401A80000B43136010BDC046600500208C0E0740880E07406B0500200C0F07406C050020000F074080050020880F0740CC0F07408805002008030740740500206000074092
:401AC000FFFEFFFF7C0500204003074068000740ED0F0000C00F074008020740700500207805002004020740FFFFFEFF8C0F0740800F07408405002040020740C80F07402C
:401B00006E0500206400074000000740FF5FFFFFFFFCFFFF38B5041CFFF73BFE051C102C05D8104A136803218B43136016E0202C07D80C490B6803229343023A13430B603A
:401B40000CE0302C07D807490B6803229343013A13430B6002E00020FFF796FC281CFFF71CFE38BD30001040014B18687047C0462C0500200E4B70B500251E1C0D4CE41A23
:401B8000A410A54204D0AB00F35898470135F8E700F0E2FA084B00251E1C084CE41AA410A54204D0AB00F35898470135F8E770BD6421000064210000642100006C2100005A
:401BC000002310B5934203D0CC5CC4540133F9E710BD031C8218934202D019700133FAE770470023C25C0133002AFBD1581E70470000000074657374206C696E65203120EE
:401C00002E2E2E00326E64206C696E65202E2E2E000000007363726F6C6C00000021007F2200070000AED580A83FD300408D142000A1C8DA1281CFD9F1DB40A4A6AF00000B
:401C400000000000003E5B4F5B3E3E6B4F6B3E1C3E7C3E1C183C7E3C181C577D571C1C5E7F5E1C00183C1800FFE7C3E7FF0018241800FFE7DBE7FF30483A060E2629792969
:401C800026407F050507407F05253F5A3CE73C5A7F3E1C1C08081C1C3E7F14227F22145F5F005F5F06097F017F006689956A606060606094A2FFA29408047E040810207E07
:401CC000201008082A1C08081C2A08081E101010100C1E0C1E0C30383E3830060E3E0E06000000000000005F00000007000700147F147F14242A7F2A122313086462364993
:401D00005620500008070300001C2241000041221C002A1C7F1C2A08083E080800807030000808080808000060600020100804023E5149453E00427F40007249494946210E
:401D400041494D331814127F1027454545393C4A49493141211109073649494936464949291E000014000000403400000008142241141414141400412214080201590906D6
:401D80003E415D594E7C1211127C7F494949363E414141227F4141413E7F494949417F090909013E414151737F0808087F00417F41002040413F017F081422417F40404051
:401DC000407F021C027F7F0408107F3E4141413E7F090909063E4151215E7F09192946264949493203017F01033F4040403F1F2040201F3F4038403F6314081463030478CC
:401E000004036159494D43007F4141410204081020004141417F04020102044040404040000307080020545478407F284444383844444428384444287F3854545418000819
:401E40007E090218A4A49C787F0804047800447D40002040403D007F1028440000417F40007C047804787C080404783844444438FC1824241818242418FC7C08040408480D
:401E80005454542404043F44243C4040207C1C2040201C3C4030403C44281028444C9090907C4464544C4400083641000000770000004136080002010204023C2623263CC8
:401EC0001EA1A161123A4040207A385454555921555579412254547842215554784020545579400C1E5272123955555559395454545939555454580000457C410002457DAD
:401F0000420001457C407D1211127DF0282528F07C545545002054547C547C0A097F4932494949323A4444443A324A4848303A4141217A3A42402078009DA0A07D3D4242FF
:401F4000423D3D4040403D3C24FF2424487E4943662B2FFC2F2BFF0929F620C0887E090320545479410000447D413048484A32384040227A007A0A0A727D0D19317D2629CC
:401F8000292F28262929292630484D4020380808080808080808382F10C8ACBA2F102834FA00007B000008142A142222142A1408AA005500AAAA55AA55AA000000FF001030
:401FC0001010FF00141414FF001010FF00FF1010F010F0141414FC001414F700FF0000FF00FF1414F404FC141417101F10101F101F1414141F00101010F0000000001F1063
:402000001010101F10101010F010000000FF101010101010101010FF10000000FF140000FF00FF00001F10170000FC04F414141710171414F404F40000FF00F71414141468
:40204000141414F700F7141414171410101F101F141414F4141010F010F000001F101F0000001F14000000FC140000F010F01010FF10FF141414FF141010101F00000000C0
:40208000F010FFFFFFFFFFF0F0F0F0F0FFFFFF0000000000FFFF0F0F0F0F0F3844443844FC4A4A4A347E02020606027E027E0263554941633844443C04407E201E2006028C
:4020C0007E020299A5E7A5991C2A492A1C4C7201724C304A4D4D303048784830BC625A463D3E494949007E0101017E2A2A2A2A2A44445F444440514A444040444A514000EB
:4021000000FF0103E080FF000008086B6B083612362436060F090F06000018180000001010003040FF0101001F01011E00191D1712003C3C3C3C000000000000EEDBC9B9AA
:40214000AA9B8E82766B60564D443B332C241D17100A040043000000F8B5C046F8BC08BC9E4670472901000069110000F8B5C046F8BC08BC9E4670470101000090210000AC
:40218000B00000208004000060000000000000000000000040000000000000000000000000000000000000000000000000000000000000000000000000000000000000002B
:4021C00000000000000000000000000000000000000000000000000000000000000000000000000000000000000000000000000000000000000000000000000000000000DF
:40220000000000000000000000000000000000000000000000000000000000000000000000000000000000000000000000000000000000000000000000000000000000009E
:40224000000000000000000000000000000000000000000000000000000000000000000000000000000000000000000000000000000000000000000000000000000000005E
:40228000000000000000000000000000000000000000000000000000000000000000000000000000000000000000000000000000000000000000000000000000000000001E
:4022C00000000000000000000000000000000000000000000000000000000000000000000000000000000000000000000000000000000000000000000000000000000000DE
:40230000000000000000000000000000000000000000000000000000000000000000000000000000000000000000000000000000000000000000000000000000000000009D
:40234000000000000000000000000000000000000000000000000000000000000000000000000000000000000000000000000000000000000000000000000000000000005D
:40238000000000000000000000000000000000000000000000000000000000000000000000000000000000000000000000000000000000000000000000000000000000001D
:4023C00000000000000000000000000000000000000000000000000000000000000000000000000000000000000000000000000000000000000000000000000000000000DD
:40240000000000000000000000000000000000000000000000000000000000000000000000000000000000000000000000000000000000000000000000000000000000009C
:40244000000000000000000000000000000000000000000000000000000000000000000000000000000000000000000000000000000000000000000000000000000000005C
:40248000000000000000000000000000000000000000000000000000000000000000000000000000000000000000000000000000000000000000000000000000000000001C
:4024C00000000000000000000000000000000000000000000000000000000000000000000000000000000000000000000000000000000000000000000000000000000000DC
:40250000000000000000000000000000000000000000000000000000000000000000000000000000000000000000000000000000000000000000000000000000000000009B
:40254000000000000000000000000000000000000000000000000000000000000000000000000000000000000000000000000000000000000000000000000000000000005B
:402580000000000000000000000000000000000000000000000000000100000000007017E02E00000C000000001BB7000000000000000000000000000000000000000000A7
:4025C0000000000000000000000000005421000000000000000000000000000000000000000000000000000000000000000000000000000000000000000000000000000066
:40260000000000000000000000000000CC040020000000000000000000000000000000000000000000000000000000000000000000000000000000000000000000000000AA
:40264000000000000000000000000000000000000000000000000000000000000000000000000000000000000000000000000000000000000000000000000000000000005A
:40268000000000000000000000000000000000000000000000000000000000000000000000000000000000000000000000000000000000000000000000000000000000001A
:4026C00000000000000000000000000000000000000000000000000000000000000000000000000000000000000000000000000000000000000000000000000000000000DA
:402700000000000000000000000000000000000000000000000000000000000000000000000000000000000000000000000000000000000000000000000000000000000099
:0200000490303A
:02000000F01DF1
:0200000490402A
:200000000000000000000000000000000000000000000000000000000000000000000000E0
:0200000490501A
:0C00000000021C0011AC00011C0B01C927
:0200000490600A
:0100000001FE
:00000001FF